S011000074657374332D4C45442E737265631E
S11300000C9434000C9446000C9446000C94460066
S11300100C9446000C9446000C9446000C94460044
S11300200C9446000C9446000C9446000C94460034
S11300300C9446000C9446000C9446000C94460024
S11300400C946E000C9446000C9446000C944600EC
S11300500C9446000C94AA000C9446000C944600A0
S11300600C9446000C94460011241FBECFEFD8E038
S1130070DEBFCDBF21E0A0E0B1E001C01D92A430FD
S1130080B207E1F70E945A000C9448010C94000056
S1130090EAE7F0E0808180648083089583E48093BC
S11300A07C008FE880937A0080E280937E000E9437
S11300B04800089580E68AB988E084B983EA84BD5B
S11300C083E88093B00081E080936E000E944E002C
S11300D0789485E085BD8093B100FFCF1F920F9285
S11300E00FB60F9211242F933F934F935F936F9307
S11300F07F938F939F93AF93BF93EF93FF9320E0EE
S113010030E048E453E46091000170910101809172
S11301100201909103010E94E20088232CF417BC91
S113012018BC1092B30005C088EC87BD18BC80933E
S1130130B300FF91EF91BF91AF919F918F917F9108
S11301406F915F914F913F912F910F900FBE0F9040
S11301501F9018951F920F920FB60F9211242F9390
S11301603F934F935F936F937F938F939F93AF933B
S1130170BF93EF93FF936091780070917900769527
S113018067957695679580E090E00E94E70060931C
S113019000017093010180930201909303010E9476
S11301A04800FF91EF91BF91AF919F918F917F9103
S11301B06F915F914F913F912F910F900FBE0F90D0
S11301C01F9018950E94240108F481E00895E89492
S11301D009C097FB3EF490958095709561957F4F8B
S11301E08F4F9F4F9923A9F0F92F96E9BB27939539
S11301F0F695879577956795B795F111F8CFFAF449
S1130200BB0F11F460FF1BC06F5F7F4F8F4F9F4F79
S113021016C0882311F096E911C0772321F09EE8D7
S1130220872F762F05C0662371F096E8862F70E03D
S113023060E02AF09A95660F771F881FDAF7880F17
S11302409695879597F90895990F0008550FAA0B6D
S1130250E0E8FEEF16161706E807F907C0F01216D5
S11302601306E407F50798F0621B730B840B950BD8
S113027039F40A2661F0232B242B252B21F408952D
S11302800A2609F4A140A6958FEF811D811D0895CA
S1070290F894FFCF0C
S9030000FC
