S014000032303138313231315F50574D2E737265632D
S11300000C9434000C9446000C9446000C94460066
S11300100C9446000C9446000C9446000C94460044
S11300200C9446000C9446000C9446000C94460034
S11300300C9446000C9446000C9446000C94460024
S11300400C9467000C9446000C9446000C944600F3
S11300500C9446000C94AA000C9446000C944600A0
S11300600C9446000C94460011241FBECFEFD8E038
S1130070DEBFCDBF21E0A0E0B1E001C01D92A630FB
S1130080B207E1F70E945A000C94E7020C940000B6
S1130090EAE7F0E0808180648083089583E48093BC
S11300A07C008FE880937A0080E280937E000E9437
S11300B04800089580E48AB983E884BD81E0809390
S11300C06E000E944E00789485E085BDFFCF1F929C
S11300D00F920FB60F9211242F933F934F935F9378
S11300E06F937F938F939F93AF93BF93EF93FF93FC
S11300F020E030E040E85EE360910201709103018A
S113010080910401909105010E947A0222E538EB66
S113011046E551E40E944B0120E030E040E551E423
S11301200E94DF000E94BD0167BD10920101109280
S11301300001FF91EF91BF91AF919F918F917F91BA
S11301406F915F914F913F912F910F900FBE0F9040
S11301501F9018951F920F920FB60F9211242F9390
S11301603F934F935F936F937F938F939F93AF933B
S1130170BF93EF93FF93609178007091790080E0D2
S113018090E00E94EC01609302017093030180935C
S11301900401909305010E944800FF91EF91BF91E3
S11301A0AF919F918F917F916F915F914F913F910B
S11301B02F910F900FBE0F901F9018955058BB278A
S11301C0AA270E94F6000C9440020E94320238F0E2
S11301D00E94390220F039F49F3F19F426F40C945C
S11301E02F020EF4E095E7FB0C942902E92F0E94FC
S11301F0510258F3BA17620773078407950720F072
S113020079F4A6F50C9473020EF4E0950B2EBA2F34
S1130210A02D0B01B90190010C01CA01A001112408
S1130220FF27591B99F0593F50F4503E68F11A16B4
S1130230F040A22F232F342F4427585FF3CF469545
S113024037952795A795F0405395C9F77EF41F1667
S1130250BA0B620B730B840BBAF09150A1F0FF0F31
S1130260BB1F661F771F881FC2F70EC0BA0F621F1D
S1130270731F841F48F4879577956795B795F7950D
S11302809E3F08F0B0CF9395880F08F09927EE0FA2
S11302909795879508950E945F010C9440020E94EF
S11302A0390258F00E94320240F029F45F3F29F0ED
S11302B00C94290251110C9474020C942F020E9484
S11302C0510268F39923B1F3552391F3951B550B10
S11302D0BB27AA2762177307840738F09F5F5F4F15
S11302E0220F331F441FAA1FA9F335D00E2E3AF054
S11302F0E0E832D091505040E695001CCAF72BD06C
S1130300FE2F29D0660F771F881FBB1F26173707BC
S11303104807AB07B0E809F0BB0B802DBF01FF27EE
S113032093585F4F3AF09E3F510578F00C942902A0
S11303300C9474025F3FE4F3983ED4F3869577956A
S11303406795B795F7959F5FC9F7880F911D9695A7
S1130350879597F90895E1E0660F771F881FBB1F03
S1130360621773078407BA0720F0621B730B840BB0
S1130370BA0BEE1F88F7E09508950E94590288F0A1
S11303809F5798F0B92F9927B751B0F0E1F0660F55
S1130390771F881F991F1AF0BA95C9F714C0B13096
S11303A091F00E947302B1E008950C947302672FD8
S11303B0782F8827B85F39F0B93FCCF386957795C5
S11303C06795B395D9F73EF49095809570956195AE
S11303D07F4F8F4F9F4F0895E89409C097FB3EF4D9
S11303E090958095709561957F4F8F4F9F4F99237E
S11303F0A9F0F92F96E9BB279395F69587957795FC
S11304006795B795F111F8CFFAF4BB0F11F460FFBB
S11304101BC06F5F7F4F8F4F9F4F16C0882311F013
S113042096E911C0772321F09EE8872F762F05C027
S1130430662371F096E8862F70E060E02AF09A95C2
S1130440660F771F881FDAF7880F9695879597F9B7
S1130450089597F99F6780E870E060E008959FEF42
S113046080EC089500240A94161617061806090647
S1130470089500240A941216130614060506089516
S1130480092E0394000C11F4882352F0BB0F40F49E
S1130490BF2B11F460FF04C06F5F7F4F8F4F9F4FDE
S11304A0089557FD9058440F551F59F05F3F71F060
S11304B04795880F97FB991F61F09F3F79F08795C7
S11304C00895121613061406551FF2CF4695F1DF50
S11304D008C0161617061806991FF1CF86957105E0
S11304E0610508940895E894BB2766277727CB0114
S11304F097F908950E948D020C9440020E943202E2
S113050038F00E94390220F0952311F00C9429024E
S11305100C942F0211240C9474020E94510270F363
S1130520959FC1F3950F50E0551F629FF001729F94
S1130530BB27F00DB11D639FAA27F00DB11DAA1FA3
S1130540649F6627B00DA11D661F829F2227B00DF0
S1130550A11D621F739FB00DA11D621F839FA00D7B
S1130560611D221F749F3327A00D611D231F849FCB
S1130570600D211D822F762F6A2F11249F57504022
S11305809AF0F1F088234AF0EE0FFF1FBB1F661F9D
S1130590771F881F91505040A9F79E3F510580F066
S11305A00C9429020C9474025F3FE4F3983ED4F354
S11305B0869577956795B795F795E7959F5FC1F70A
S11305C0FE2B880F911D9695879597F90895F894B9
S10505D0FFCF57
S9030000FC
