S01000006D61696E5F4C45442E737265633B
S11300000C9434000C9446000C9446000C94460066
S11300100C9446000C9446000C9446000C94460044
S11300200C9446000C9446000C9446000C94460034
S11300300C9446000C9446000C9446000C94460024
S11300400C9446000C9446000C9446000C94460014
S11300500C9446000C9446000C9446000C94460004
S11300600C9446000C94460011241FBECFEFD8E038
S1130070DEBFCDBF21E0A0E0B1E001C01D92A03001
S1130080B207E1F70E9448000C9487000C9400002A
S113009080E68AB988E084B917B888B1876088B9DE
S11300A081EA84BD81E88093B00081E080936E0092
S11300B0789485E085BD8093B1002DECE3EBF0E00E
S11300C09FEF56EE44EB37EF86B1877021F417BCEF
S11300D098BD1082F9CF86B18770813021F447BD75
S11300E038BD1082F1CF86B18770823021F457BDBC
S11300F098BD1082E9CF86B18770833021F497BD13
S113010018BC1082E1CF27BD18BC9083DDCFF894D2
S1050110FFCF1B
S9030000FC
