:100000000C9434000C9446000C9446000C9446006A
:100010000C9446000C9446000C9446000C94460048
:100020000C9446000C94BA000C9446000C944600C4
:100030000C9446000C9446000C9446000C94460028
:100040000C94B0000C9446000C9446000C944600AE
:100050000C9446000C9451010C9446000C944600FC
:100060000C9446000C94460011241FBECFEFD8E03C
:10007000DEBFCDBF21E0A0E0B1E001C01D92AA30FB
:10008000B207E1F70E945A000C94B5030C940000EB
:10009000EAE7F0E0808180648083089583E48093C0
:1000A0007C008FE880937A0080E280937E000E943B
:1000B0004800089580EC8AB983E88093B00081E01D
:1000C0008093700020E030E048EC52E4609104013D
:1000D0007091050180910601909107010E94F00145
:1000E00020E030E04FE753E40E9424030E946202C4
:1000F0006093B3000E944E00789487E08093B10033
:100100002FEF81EE94E0215080409040E1F700C055
:10011000000020E030E040E251E460910401709181
:10012000050180910601909107010E94840160936E
:10013000040170930501809306019093070120E06C
:1001400030E048EC52E40E941F031816CCF61092DF
:100150000401109205011092060110920701D0CF00
:100160001F920F920FB60F9211240F900FBE0F9097
:100170001F9018951F920F920FB60F9211242F9374
:100180003F934F935F936F937F938F939F93AF931F
:10019000BF93EF93FF93809108019091090100971D
:1001A00061F5809102019091030101968A309105D9
:1001B0002CF490930301809302014BC01092030131
:1001C000109202018091000190910101019690939B
:1001D0000101809300010697E4F15F9A10920301F8
:1001E00010920201109201011092000181E090E052
:1001F00090930901809308012CC0019751F58091DB
:1002000002019091030101968A3091052CF490939C
:100210000301809302011DC010920301109202019C
:1002200080910001909101010196909301018093CA
:100230000001069774F08BB11BB810920301109265
:100240000201109201011092000110920901109216
:10025000080120E030E048EC52E460910401709124
:10026000050180910601909107010E94F00120E0B4
:1002700030E04FE753E40E9424030E94620267BD0E
:10028000FF91EF91BF91AF919F918F917F916F916E
:100290005F914F913F912F910F900FBE0F901F9044
:1002A00018951F920F920FB60F9211242F933F9320
:1002B0004F935F936F937F938F939F93AF93BF936E
:1002C000EF93FF93609178007091790080E090E067
:1002D0000E949102609304017093050180930601CE
:1002E00090930701FF91EF91BF91AF919F918F91F3
:1002F0007F916F915F914F913F912F910F900FBE22
:100300000F901F9018955058BB27AA270E949B0159
:100310000C94E5020E94D70238F00E94DE0220F021
:1003200039F49F3F19F426F40C94D4020EF4E095AE
:10033000E7FB0C94CE02E92F0E94F60258F3BA179D
:10034000620773078407950720F079F4A6F50C94EB
:1003500018030EF4E0950B2EBA2FA02D0B01B90156
:1003600090010C01CA01A0011124FF27591B99F02B
:10037000593F50F4503E68F11A16F040A22F232F37
:10038000342F4427585FF3CF469537952795A79587
:10039000F0405395C9F77EF41F16BA0B620B730B2E
:1003A000840BBAF09150A1F0FF0FBB1F661F771F9F
:1003B000881FC2F70EC0BA0F621F731F841F48F454
:1003C000879577956795B795F7959E3F08F0B0CFDD
:1003D0009395880F08F09927EE0F979587950895C4
:1003E0000E9404020C94E5020E94DE0258F00E9472
:1003F000D70240F029F45F3F29F00C94CE0251114E
:100400000C9419030C94D4020E94F60268F3992309
:10041000B1F3552391F3951B550BBB27AA27621700
:100420007307840738F09F5F5F4F220F331F441F0D
:10043000AA1FA9F335D00E2E3AF0E0E832D0915041
:100440005040E695001CCAF72BD0FE2F29D0660F2E
:10045000771F881FBB1F261737074807AB07B0E871
:1004600009F0BB0B802DBF01FF2793585F4F3AF077
:100470009E3F510578F00C94CE020C9419035F3F17
:10048000E4F3983ED4F3869577956795B795F795FD
:100490009F5FC9F7880F911D9695879597F90895E5
:1004A000E1E0660F771F881FBB1F62177307840781
:1004B000BA0720F0621B730B840BBA0BEE1F88F790
:1004C000E09508950E94FE0288F09F5798F0B92F9A
:1004D0009927B751B0F0E1F0660F771F881F991F79
:1004E0001AF0BA95C9F714C0B13091F00E94180300
:1004F000B1E008950C941803672F782F8827B85F10
:1005000039F0B93FCCF3869577956795B395D9F7D0
:100510003EF490958095709561957F4F8F4F9F4FDA
:100520000895E89409C097FB3EF4909580957095E6
:1005300061957F4F8F4F9F4F9923A9F0F92F96E92F
:10054000BB279395F695879577956795B795F111A4
:10055000F8CFFAF4BB0F11F460FF1BC06F5F7F4F41
:100560008F4F9F4F16C0882311F096E911C0772353
:1005700021F09EE8872F762F05C0662371F096E85C
:10058000862F70E060E02AF09A95660F771F881F2B
:10059000DAF7880F9695879597F9089597F99F67E9
:1005A00080E870E060E008959FEF80EC08950024FB
:1005B0000A941616170618060906089500240A94C8
:1005C00012161306140605060895092E0394000C4E
:1005D00011F4882352F0BB0F40F4BF2B11F460FFDD
:1005E00004C06F5F7F4F8F4F9F4F089557FD905806
:1005F000440F551F59F05F3F71F04795880F97FBE7
:10060000991F61F09F3F79F08795089512161306A0
:100610001406551FF2CF4695F1DF08C016161706CF
:100620001806991FF1CF8695710561050894089504
:10063000E894BB2766277727CB0197F908950E9496
:10064000910308F48FEF08950E9437030C94E5029C
:100650000E94D70238F00E94DE0220F0952311F0AC
:100660000C94CE020C94D40211240C9419030E9411
:10067000F60270F3959FC1F3950F50E0551F629FEE
:10068000F001729FBB27F00DB11D639FAA27F00DEB
:10069000B11DAA1F649F6627B00DA11D661F829F12
:1006A0002227B00DA11D621F739FB00DA11D621FF7
:1006B000839FA00D611D221F749F3327A00D611D14
:1006C000231F849F600D211D822F762F6A2F1124F6
:1006D0009F5750409AF0F1F088234AF0EE0FFF1F29
:1006E000BB1F661F771F881F91505040A9F79E3F80
:1006F000510580F00C94CE020C9419035F3FE4F393
:10070000983ED4F3869577956795B795F795E795D5
:100710009F5FC1F7FE2B880F911D9695879597F9DE
:100720000895990F0008550FAA0BE0E8FEEF161682
:100730001706E807F907C0F012161306E407F507D5
:1007400098F0621B730B840B950B39F40A2661F049
:10075000232B242B252B21F408950A2609F4A140EC
:0E076000A6958FEF811D811D0895F894FFCF9F
:00000001FF
