:100000000C9434000C9446000C9446000C9446006A
:100010000C9446000C9446000C9446000C94460048
:100020000C9446000C94CE000C9446000C944600B0
:100030000C9446000C94BF000C9446000C944600AF
:100040000C943E010C9446000C9446000C9446001F
:100050000C9446000C9408010C9446000C94460045
:100060000C9446000C94460011241FBECFEFD8E03C
:10007000DEBFCDBF21E0A0E0B1E001C01D92A43001
:10008000B207E1F70E9455000C940D030C94000098
:1000900083E480937C008FEA80937A0086E08093EB
:1000A0007B0088E080937E00089588E68AB98AE024
:1000B00084B981EA84BD81EC8093800083E88093D9
:1000C000B000C1E0C0936E00C0936F00C093700099
:1000D0000E9448007894C5BD8DE08093810087E040
:1000E0008093B1008BEF90E090938900809388001B
:1000F0000F2EF4E6BF2EF02DCFEF06EE14EBD7EF68
:10010000C0900001D0900101E0900201F090030145
:1001100020E030E048E452E4C701B6010E94B50196
:1001200088231CF417BCC8BDEBCF20E030E048ECBE
:1001300052E4C701B6010E94B50188231CF417BD23
:10014000D8BDDECF20E030E046E153E4C701B60180
:100150000E94B50188231CF407BDC8BDD1CF20E0A3
:1001600030E048E453E4C701B6010E94B50188239A
:100170001CF4C7BD18BCC4CFB7BCB8BCC1CF1F925C
:100180000F920FB60F9211248F9384E68093840010
:100190008F910F900FBE0F901F9018951F920F9286
:1001A0000FB60F9211242F933F934F935F936F934A
:1001B0007F938F939F93AF93BF93EF93FF9322E52A
:1001C00038EB46E551E460910001709101018091A6
:1001D0000201909103010E94BA0120E030E040E565
:1001E00051E40E9449010E942C026093B300FF91E8
:1001F000EF91BF91AF919F918F917F916F915F919F
:100200004F913F912F910F900FBE0F901F90189517
:100210001F920F920FB60F9211242F933F934F937B
:100220005F936F937F938F939F93AF93BF93EF935E
:10023000FF93609178007091790076956795769537
:10024000679580E090E00E945B02609300017093EC
:1002500001018093020190930301FF91EF91BF91FF
:10026000AF919F918F917F916F915F914F913F914E
:100270002F910F900FBE0F901F9018951F920F9205
:100280000FB60F9211240F900FBE0F901F9018956C
:100290005058BB27AA270E9460010C94D3020E94E9
:1002A000C50238F00E94CC0220F039F49F3F19F4C7
:1002B00026F40C94C2020EF4E095E7FB0C94BC0209
:1002C000E92F0E94E40258F3BA1762077307840704
:1002D000950720F079F4A6F50C9406030EF4E0954A
:1002E0000B2EBA2FA02D0B01B90190010C01CA01F0
:1002F000A0011124FF27591B99F0593F50F4503E9B
:1003000068F11A16F040A22F232F342F4427585F8C
:10031000F3CF469537952795A795F0405395C9F7A4
:100320007EF41F16BA0B620B730B840BBAF091505C
:10033000A1F0FF0FBB1F661F771F881FC2F70EC0FB
:10034000BA0F621F731F841F48F4879577956795CE
:10035000B795F7959E3F08F0B0CF9395880F08F0BA
:100360009927EE0F9795879508950E94980208F4B3
:1003700081E008950E94CE010C94D3020E94CC0229
:1003800058F00E94C50240F029F45F3F29F00C9418
:10039000BC0251110C9407030C94C2020E94E402A7
:1003A00068F39923B1F3552391F3951B550BBB27A4
:1003B000AA2762177307840738F09F5F5F4F220FE9
:1003C000331F441FAA1FA9F335D00E2E3AF0E0E8E0
:1003D00032D091505040E695001CCAF72BD0FE2F2A
:1003E00029D0660F771F881FBB1F261737074807BE
:1003F000AB07B0E809F0BB0B802DBF01FF27935876
:100400005F4F3AF09E3F510578F00C94BC020C947B
:1004100007035F3FE4F3983ED4F38695779567959D
:10042000B795F7959F5FC9F7880F911D96958795AA
:1004300097F90895E1E0660F771F881FBB1F6217C9
:1004400073078407BA0720F0621B730B840BBA0B87
:10045000EE1F88F7E09508950E94EC0288F09F5700
:1004600098F0B92F9927B751B0F0E1F0660F771FD8
:10047000881F991F1AF0BA95C9F714C0B13091F0CE
:100480000E940603B1E008950C940603672F782FAD
:100490008827B85F39F0B93FCCF386957795679593
:1004A000B395D9F73EF490958095709561957F4FFF
:1004B0008F4F9F4F0895E89409C097FB3EF49095A5
:1004C0008095709561957F4F8F4F9F4F9923A9F02D
:1004D000F92F96E9BB279395F695879577956795BC
:1004E000B795F111F8CFFAF4BB0F11F460FF1BC000
:1004F0006F5F7F4F8F4F9F4F16C0882311F096E993
:1005000011C0772321F09EE8872F762F05C0662340
:1005100071F096E8862F70E060E02AF09A95660FF9
:10052000771F881FDAF7880F9695879597F90895B2
:10053000990F0008550FAA0BE0E8FEEF16161706F4
:10054000E807F907C0F012161306E407F50798F05C
:10055000621B730B840B950B39F40A2661F0232B75
:10056000242B252B21F408950A2609F4A140A695F1
:100570008FEF811D811D089597F99F6780E870E0D6
:1005800060E008959FEF80EC089500240A94161609
:10059000170618060906089500240A941216130671
:1005A000140605060895092E0394000C11F48823FF
:1005B00052F0BB0F40F4BF2B11F460FF04C06F5F1B
:1005C0007F4F8F4F9F4F089557FD9058440F551FF1
:1005D00059F05F3F71F04795880F97FB991F61F0C5
:1005E0009F3F79F087950895121613061406551F3C
:1005F000F2CF4695F1DF08C0161617061806991FA8
:10060000F1CF86957105610508940895E894BB279C
:0E06100066277727CB0197F90895F894FFCF5E
:00000001FF
