:100000000C9434000C9446000C9446000C9446006A
:100010000C9446000C9446000C9446000C94460048
:100020000C9446000C94D4000C9446000C944600AA
:100030000C9446000C94C5000C9446000C944600A9
:100040000C9444010C9446000C9446000C94460019
:100050000C9446000C940E010C9446000C9446003F
:100060000C9446000C94460011241FBECFEFD8E03C
:10007000DEBFCDBF21E0A0E0B1E001C01D92A43001
:10008000B207E1F70E9455000C9413030C94000092
:1000900083E480937C008FEA80937A0086E08093EB
:1000A0007B0088E080937E00089588EF8AB98BE01A
:1000B00084B983E884BD81E88093800083EA8093DB
:1000C000B000C1E0C0936E00C0936F00C093700099
:1000D0000E9448007894C5BD8DE08093810087E040
:1000E0008093B10088E690E0909389008093880027
:1000F000C0900001D0900101E0900201F090030156
:1001000020E030E048E452E4C701B6010E94BB01A0
:1001100088233CF48BB11BB88BB11BB885B115B8E3
:10012000E7CF20E030E048EC52E4C701B6010E947E
:10013000BB0188232CF45C9A5F9885B115B8D8CFA1
:1001400020E030E046E153E4C701B6010E94BB0164
:10015000882334F48BB11BB85F9A85B115B8C8CF2A
:1001600020E030E048E453E4C701B6010E94BB013F
:1001700088232CF45C9A5F9A85B115B8B9CF8BB1FE
:100180001BB88BB11BB8289AB3CF1F920F920FB632
:100190000F9211248F9384E6809384008F910F90A7
:1001A0000FBE0F901F9018951F920F920FB60F92CF
:1001B00011242F933F934F935F936F937F938F936C
:1001C0009F93AF93BF93EF93FF9322E538EB46E500
:1001D00051E46091000170910101809102019091C0
:1001E00003010E94C00120E030E040E551E40E949C
:1001F0004F010E9432026093B300FF91EF91BF91D3
:10020000AF919F918F917F916F915F914F913F91AE
:100210002F910F900FBE0F901F9018951F920F9265
:100220000FB60F9211242F933F934F935F936F93C9
:100230007F938F939F93AF93BF93EF93FF936091BF
:10024000780070917900769567957695679580E04E
:1002500090E00E946102609300017093010180931D
:10026000020190930301FF91EF91BF91AF919F9194
:100270008F917F916F915F914F913F912F910F904F
:100280000FBE0F901F9018951F920F920FB60F92EE
:1002900011240F900FBE0F901F9018955058BB2738
:1002A000AA270E9466010C94D9020E94CB0238F062
:1002B0000E94D20220F039F49F3F19F426F40C94E6
:1002C000C8020EF4E095E7FB0C94C202E92F0E94ED
:1002D000EA0258F3BA17620773078407950720F0FC
:1002E00079F4A6F50C940C030EF4E0950B2EBA2FBE
:1002F000A02D0B01B90190010C01CA01A00111242C
:10030000FF27591B99F0593F50F4503E68F11A16D7
:10031000F040A22F232F342F4427585FF3CF469568
:1003200037952795A795F0405395C9F77EF41F168A
:10033000BA0B620B730B840BBAF09150A1F0FF0F54
:10034000BB1F661F771F881FC2F70EC0BA0F621F40
:10035000731F841F48F4879577956795B795F79530
:100360009E3F08F0B0CF9395880F08F09927EE0FC5
:100370009795879508950E949E0208F481E008955C
:100380000E94D4010C94D9020E94D20258F00E941B
:10039000CB0240F029F45F3F29F00C94C2025111C6
:1003A0000C940D030C94C8020E94EA0268F399238E
:1003B000B1F3552391F3951B550BBB27AA27621761
:1003C0007307840738F09F5F5F4F220F331F441F6E
:1003D000AA1FA9F335D00E2E3AF0E0E832D09150A2
:1003E0005040E695001CCAF72BD0FE2F29D0660F8F
:1003F000771F881FBB1F261737074807AB07B0E8D2
:1004000009F0BB0B802DBF01FF2793585F4F3AF0D7
:100410009E3F510578F00C94C2020C940D035F3F8F
:10042000E4F3983ED4F3869577956795B795F7955D
:100430009F5FC9F7880F911D9695879597F9089545
:10044000E1E0660F771F881FBB1F621773078407E1
:10045000BA0720F0621B730B840BBA0BEE1F88F7F0
:10046000E09508950E94F20288F09F5798F0B92F06
:100470009927B751B0F0E1F0660F771F881F991FD9
:100480001AF0BA95C9F714C0B13091F00E940C036C
:10049000B1E008950C940C03672F782F8827B85F7C
:1004A00039F0B93FCCF3869577956795B395D9F731
:1004B0003EF490958095709561957F4F8F4F9F4F3B
:1004C0000895E89409C097FB3EF490958095709547
:1004D00061957F4F8F4F9F4F9923A9F0F92F96E990
:1004E000BB279395F695879577956795B795F11105
:1004F000F8CFFAF4BB0F11F460FF1BC06F5F7F4FA2
:100500008F4F9F4F16C0882311F096E911C07723B3
:1005100021F09EE8872F762F05C0662371F096E8BC
:10052000862F70E060E02AF09A95660F771F881F8B
:10053000DAF7880F9695879597F90895990F00082F
:10054000550FAA0BE0E8FEEF16161706E807F907A5
:10055000C0F012161306E407F50798F0621B730B40
:10056000840B950B39F40A2661F0232B242B252BC1
:1005700021F408950A2609F4A140A6958FEF811D64
:10058000811D089597F99F6780E870E060E0089505
:100590009FEF80EC089500240A941616170618069B
:1005A0000906089500240A94121613061406050677
:1005B0000895092E0394000C11F4882352F0BB0F08
:1005C00040F4BF2B11F460FF04C06F5F7F4F8F4F6B
:1005D0009F4F089557FD9058440F551F59F05F3FA6
:1005E00071F04795880F97FB991F61F09F3F79F055
:1005F00087950895121613061406551FF2CF4695D7
:10060000F1DF08C0161617061806991FF1CF869558
:100610007105610508940895E894BB27662777273C
:0A062000CB0197F90895F894FFCF7D
:00000001FF
