:100000000C9434000C9446000C9446000C9446006A
:100010000C9446000C9446000C9446000C94460048
:100020000C9446000C9446000C9446000C94460038
:100030000C9446000C94F7000C9446000C94460077
:100040000C9446000C9446000C9446000C94460018
:100050000C9446000C941E010C9446000C9446002F
:100060000C9446000C94460011241FBECFEFD8E03C
:10007000DEBFCDBF21E0A0E0B1E001C01D92A43001
:10008000B207E1F70E9452000C9486030C94000022
:1000900083E480937C008FE880937A0080E28093F1
:1000A0007E00089588E68AB988E084B981EA84BD33
:1000B00081E88093800083EA8093B000C1E0C09320
:1000C0006E00C0936F00C09370000E944800789447
:1000D000C5BD8DE08093810085E08093B10087E607
:1000E00090E090938900809388000F2EFDEC7F2E86
:1000F000F02D04EB10E0BB24BA940F2EF6EE8F2EF9
:10010000F02D0F2EF4EB9F2EF02D0F2EF7EFAF2ECC
:10011000F02DC3EBD0E0C0900001D0900101E09041
:100120000201F090030120E030E048E452E4C7010E
:10013000B6010E94C10188232CF417BCB8BCF80199
:10014000108231C020E030E048EC52E4C701B60133
:100150000E94C10188232CF497BCA8BCF80110822E
:1001600022C020E030E046E153E4C701B6010E941E
:10017000C10188232CF487BCB8BCF801108213C0DD
:1001800020E030E048E453E4C701B6010E94C10119
:1001900088232CF4B7BC18BCF801108204C077BCCB
:1001A00018BCF801B08220E030E040E85EE36091E6
:1001B00000017091010180910201909103010E9460
:1001C000190322E538EB46E551E40E94C60120E020
:1001D00030E040E551E40E9455010E9438026883F6
:1001E0009ACFEAE7F0E080818064808308951F92CF
:1001F0000F920FB60F9211242F933F934F935F935B
:100200006F937F938F939F93AF93BF93EF93FF93DE
:1002100084E6809384000E94F100FF91EF91BF91EA
:10022000AF919F918F917F916F915F914F913F918E
:100230002F910F900FBE0F901F9018951F920F9245
:100240000FB60F9211242F933F934F935F936F93A9
:100250007F938F939F93AF93BF93EF93FF9360919F
:10026000780070917900769567957695679580E02E
:1002700090E00E94670260930001709301018093F7
:10028000020190930301FF91EF91BF91AF919F9174
:100290008F917F916F915F914F913F912F910F902F
:1002A0000FBE0F901F9018955058BB27AA270E9489
:1002B0006C010C94DF020E94D10238F00E94D80237
:1002C00020F039F49F3F19F426F40C94CE020EF47A
:1002D000E095E7FB0C94C802E92F0E94F00258F366
:1002E000BA17620773078407950720F079F4A6F51B
:1002F0000C9412030EF4E0950B2EBA2FA02D0B01D7
:10030000B90190010C01CA01A0011124FF27591B5A
:1003100099F0593F50F4503E68F11A16F040A22F60
:10032000232F342F4427585FF3CF469537952795D1
:10033000A795F0405395C9F77EF41F16BA0B620BD0
:10034000730B840BBAF09150A1F0FF0FBB1F661F17
:10035000771F881FC2F70EC0BA0F621F731F841F5A
:1003600048F4879577956795B795F7959E3F08F080
:10037000B0CF9395880F08F09927EE0F9795879542
:1003800008950E94A40208F481E008950E94DA0111
:100390000C94DF020E94D80258F00E94D10240F073
:1003A00029F45F3F29F00C94C80251110C941303F7
:1003B0000C94CE020E94F00268F39923B1F3552306
:1003C00091F3951B550BBB27AA2762177307840768
:1003D00038F09F5F5F4F220F331F441FAA1FA9F3FE
:1003E00035D00E2E3AF0E0E832D091505040E695EC
:1003F000001CCAF72BD0FE2F29D0660F771F881F4D
:10040000BB1F261737074807AB07B0E809F0BB0B3F
:10041000802DBF01FF2793585F4F3AF09E3F510553
:1004200078F00C94C8020C9413035F3FE4F3983EF9
:10043000D4F3869577956795B795F7959F5FC9F73C
:10044000880F911D9695879597F90895E1E0660FBD
:10045000771F881FBB1F621773078407BA0720F036
:10046000621B730B840BBA0BEE1F88F7E09508959F
:100470000E94F80288F09F5798F0B92F9927B7513A
:10048000B0F0E1F0660F771F881F991F1AF0BA9538
:10049000C9F714C0B13091F00E941203B1E0089581
:1004A0000C941203672F782F8827B85F39F0B93F73
:1004B000CCF3869577956795B395D9F73EF49095EB
:1004C0008095709561957F4F8F4F9F4F0895E89469
:1004D00009C097FB3EF490958095709561957F4F8C
:1004E0008F4F9F4F9923A9F0F92F96E9BB2793953A
:1004F000F695879577956795B795F111F8CFFAF44A
:10050000BB0F11F460FF1BC06F5F7F4F8F4F9F4F7A
:1005100016C0882311F096E911C0772321F09EE8D8
:10052000872F762F05C0662371F096E8862F70E03E
:1005300060E02AF09A95660F771F881FDAF7880F18
:100540009695879597F90895990F0008550FAA0B6E
:10055000E0E8FEEF16161706E807F907C0F01216D6
:100560001306E407F50798F0621B730B840B950BD9
:1005700039F40A2661F0232B242B252B21F408952E
:100580000A2609F4A140A6958FEF811D811D0895CB
:1005900097F99F6780E870E060E008959FEF80EC36
:1005A000089500240A9416161706180609060895D9
:1005B00000240A9412161306140605060895092E3F
:1005C0000394000C11F4882352F0BB0F40F4BF2BAE
:1005D00011F460FF04C06F5F7F4F8F4F9F4F0895EE
:1005E00057FD9058440F551F59F05F3F71F04795E4
:1005F000880F97FB991F61F09F3F79F087950895C9
:10060000121613061406551FF2CF4695F1DF08C0E7
:10061000161617061806991FF1CF86957105610504
:1006200008940895E894BB2766277727CB0197F9AC
:1006300008950E942C030C94DF020E94D10238F02E
:100640000E94D80220F0952311F00C94C8020C945B
:10065000CE0211240C9413030E94F00270F3959FB4
:10066000C1F3950F50E0551F629FF001729FBB27A9
:10067000F00DB11D639FAA27F00DB11DAA1F649F45
:100680006627B00DA11D661F829F2227B00DA11DF8
:10069000621F739FB00DA11D621F839FA00D611D7E
:1006A000221F749F3327A00D611D231F849F600D9F
:1006B000211D822F762F6A2F11249F5750409AF0C8
:1006C000F1F088234AF0EE0FFF1FBB1F661F771F54
:1006D000881F91505040A9F79E3F510580F00C941F
:1006E000C8020C9413035F3FE4F3983ED4F386955D
:1006F00077956795B795F795E7959F5FC1F7FE2BBF
:10070000880F911D9695879597F90895F894FFCFD6
:00000001FF
